:100000000C940C030C9434030C9434030C943403BC
:100010000C9434030C9434030C9434030C94340384
:100020000C9434030C9434030C9434030C94960A0B
:100030000C9434030C9434030C9434030C94340364
:100040000C94F4090C9434030C94640A0C943E0A46
:100050000C9434030C9434030C9434030C94340344
:100060000C9434030C9434030A000A002E002E0072
:1000700073004D656469646F72564D4D203A3A20A5
:10008000496E696369616E646F20656D3A2000494D
:100090006E696369616E646F00004D656469646FC9
:1000A00072564D4D203A3A205265706F7369746FE5
:1000B00072696F3A20006769744070616F64656CA3
:1000C0006F6E6761004D656469646F72564D4D20B7
:1000D0003A3A205265766973616F3A20005665722C
:1000E00073616F3A20004D656469646F72564D4DBF
:1000F000203A3A2056657273616F3A20004D65646C
:1001000069646F72564D4D203A3A204175746F7292
:1001100065733A20004D656469646F72564D4D20D9
:100120003A3A204175746F7265733A2000417574D4
:100130006F72657300436F6D706C6574612E004C57
:10014000656974757261004D656469646F72564DBE
:100150004D203A3A2050726F63657373616D656E1E
:10016000746F206465206461646F7320636F6D70C9
:100170006C65746F2E0A004D656469646F72564D2C
:100180004D203A3A204461646F732063616C63755B
:100190006C61646F7320652070726F636573736147
:1001A000646F732E004D656469646F72564D4D2007
:1001B0003A3A2043616C63756C616E646F20612014
:1001C00076656C6F63696461646520746F74616CDB
:1001D0002E0A004D656469646F72564D4D203A3A9F
:1001E0002043616C63756C616E646F206F20696E73
:1001F00074657276616C6F20746F74616C2E004D43
:10020000656469646F72564D4D203A3A2043616CC3
:1002100063756C616E646F206120746572636569DB
:1002200072612076656C6F6369646164652E0A0093
:100230004D656469646F72564D4D203A3A204361B2
:100240006C63756C616E646F206120736567756E99
:1002500064612076656C6F6369646164652E004D2E
:10026000656469646F72564D4D203A3A2043616C63
:1002700063756C616E646F2061207072696D656971
:1002800072612076656C6F6369646164652E004DF0
:10029000656469646F72564D4D203A3A2043616C33
:1002A00063756C616E646F206F207465726365693D
:1002B000726F20696E74657276616C6F2E0A004DE4
:1002C000656469646F72564D4D203A3A2043616C03
:1002D00063756C616E646F206F20736567756E6403
:1002E0006F20696E74657276616C6F2E004D656467
:1002F00069646F72564D4D203A3A2043616C6375C4
:100300006C616E646F206F207072696D6569726FC9
:1003100020696E74657276616C6F2E004D6564693C
:10032000646F72564D4D203A3A2043616C63756C90
:10033000616E646F2061207661726961C3A7C3A397
:100340006F2064652064697374C3A26E6369612E53
:100350000A000A4D656469646F72564D4D203A3A41
:1003600020496E696369616E646F2063616C6375B7
:100370006C6F20646F73206461646F732E0A006C6D
:100380006569747572610050726F63657373616E35
:10039000646F0064657465637461646F00546572B2
:1003A000636569726F204952004D656469646F72BC
:1003B000564D4D203A3A20546572636569726F203C
:1003C00073656E736F722064657465637461646FC6
:1003D0002E0064657465637461646F0053656775AE
:1003E0006E646F204952004D656469646F72564DAA
:1003F0004D203A3A20536567756E646F2073656EC1
:10040000736F722064657465637461646F2E006439
:10041000657465637461646F005072696D656972BB
:100420006F204952004D656469646F72564D4D20CE
:100430003A3A205072696D6569726F2073656E7308
:100440006F722064657465637461646F2E00496E19
:1004500069636961646F730053656E736F7265736E
:10046000000A4D656469646F72564D4D203A3A201A
:100470004F626A65746F206C6962657261646F2E89
:10048000000A4D656469646F72564D4D203A3A20FA
:10049000496E696369616E646F206C656974757219
:1004A000612E00496E696369616E646F20656D201D
:1004B0000073004D656469646F72564D4D203A3A81
:1004C00020496E696369616E646F2061206C6569A3
:1004D0007475726120656D3A20004D656469646FC2
:1004E00072564D4D203A3A20506F736963696F6EB2
:1004F000616D656E746F20436F6D706C65746F2EE7
:100500000A004D656469646F72564D4D203A3A2079
:100510004F626A65746F20706F736963696F6E6193
:10052000646F2E006C656674007072657373696F1A
:100530006E65006F626A65746F206500506F736945
:1005400063696F6E65206F004D656469646F7256F4
:100550004D4D203A3A2065207072657373696F6E55
:1005600065206C6566742E004D656469646F725613
:100570004D4D203A3A205061726120696E6963697D
:10058000617220706F736963696F6E65206F206F91
:10059000626A65746F00504152412053454C454397
:1005A000414F004C4546542F524947485400504152
:1005B0005241204E415645474143414F0055502F2F
:1005C00052494748540000000000240027002A0038
:1005D00000000000250028002B000404040404048B
:1005E00004040202020202020303030303030102E2
:1005F00004081020408001020408102001020408B1
:1006000010200000000800020100000304070000A1
:10061000000000000000520B11241FBECFEFD8E0F5
:10062000DEBFCDBF12E0A0E0B1E0E6E9F1E302C039
:1006300005900D92A635B107D9F725E0A6E5B2E001
:1006400001C01D92A135B207E1F713E0CCE0D3E081
:1006500004C02197FE010E94D116CB30D107C9F703
:100660000E94290C0C94C9180C9400008F929F9240
:10067000AF92BF92FF920F931F93CF93DF93F090AF
:1006800032052BE02F1508F44CC02091340508E505
:1006900012E0021B110927FD1395000F111F000F17
:1006A000111F20913305C8E8D0E0C21BD10927FDF6
:1006B000D395CC0FDD1FCC0FDD1F4E010D2E000C8E
:1006C000AA08BB089801012E000C440B550B2819F1
:1006D00039094A095B09DC010E94761524EB30E0F8
:1006E00040E050E00E944C15820E931EA41EB51EE1
:1006F0008C169D062CF0E801801691060CF4E4019E
:100700002297CC0FDD1F2FB7F8948F2D90E0FC01BE
:10071000EE0FFF1FE80FF91FEF5FFC4FD283C1837D
:100720002FBFDF91CF911F910F91FF90BF90AF909E
:100730009F908F90089590E0FC01EE5FF94F249117
:10074000FC01E251FA4F3491FC01E652FA4FE49178
:10075000EE23C9F0222339F0233001F1A8F421302F
:1007600019F1223029F1F0E0EE0FFF1FE053FA4FAC
:10077000A591B4918FB7F894EC91611126C0309592
:100780003E233C938FBF08952730A9F02830C9F04D
:10079000243049F7809180008F7D03C080918000D4
:1007A0008F7780938000DFCF84B58F7784BDDBCFD8
:1007B00084B58F7DFBCF8091B0008F778093B000A0
:1007C000D2CF8091B0008F7DF9CF3E2BDACFCF937F
:1007D000DF9390E0FC01E251FA4F249186529A4F48
:1007E000FC0184918823D1F090E0880F991FFC01CF
:1007F000EA53FA4FA591B491FC01E053FA4FC59129
:10080000D49161110EC09FB7F8948C91E22FE095BE
:100810008E238C932881E223E8839FBFDF91CF91C1
:1008200008958FB7F894EC91E22BEC938FBFF6CF3D
:100830008E3008F08E508770806480937C008091A9
:100840007A00806480937A0080917A0086FDFCCFE4
:100850008091780090917900089580E00E941804BA
:1008600090936102809360029C01215031092133F1
:10087000310538F484E0809362028091620290E056
:1008800008959C0123533109273C310510F481E080
:10089000F2CF9C012B5F3109273C310510F482E037
:1008A000EACF9C01235C31402539310510F483E007
:1008B000E2CF9C01295532402B32314010F485E0C3
:1008C000DACF85389340CCF210926202D6CF3FB790
:1008D000F89480915C0290915D02A0915E02B091CB
:1008E0005F0226B5A89B05C02F3F19F00196A11DF8
:1008F000B11D3FBFBA2FA92F982F8827BC01CD016A
:10090000620F711D811D911D42E0660F771F881FC8
:10091000991F4A95D1F708958F929F92AF92BF92F7
:10092000CF92DF92EF92FF926B017C010E946704ED
:100930004B015C01C114D104E104F104B9F00E943F
:100940006704681979098A099B09683E7340810523
:10095000910580F321E0C21AD108E108F10888EE80
:10096000880E83E0981EA11CB11CE4CFFF90EF908D
:10097000DF90CF90BF90AF909F908F9008952FB74A
:10098000F894609158027091590280915A029091A6
:100990005B022FBF0895EF92FF920F931F93CF93A7
:1009A000DF938C017B01D0E0C0E0F701EC0FFD1F6D
:1009B0006491662361F0D801ED91FC910190F08182
:1009C000E02DC8010995892B11F02196EECFCE01BB
:1009D000DF91CF911F910F91FF90EF900895AF920B
:1009E000BF92CF92DF92EF92FF920F931F93CF931C
:1009F000DF936C017B018B01040F151FEB015E017E
:100A0000AE18BF08C017D10759F06991D601ED9112
:100A1000FC910190F081E02DC6010995892B79F7B1
:100A2000C501DF91CF911F910F91FF90EF90DF9063
:100A3000CF90BF90AF900895FC01538D448D252F2A
:100A400030E0842F90E0821B930B541710F0CF9668
:100A5000089501970895FC01918D828D981761F09A
:100A6000A28DAE0FBF2FB11D5D968C91928D9F5FB1
:100A70009F73928F90E008958FEF9FEF0895FC0190
:100A8000918D828D981731F0828DE80FF11D858D43
:100A900090E008958FEF9FEF0895FC01918D228DD6
:100AA000892F90E0805C9F4F821B91098F7399275B
:100AB000089584E692E00E944D0521E0892B09F417
:100AC00020E0822F089580E090E0892B29F00E9499
:100AD000590581110C9400000895FC01A48DA80F04
:100AE000B92FB11DA35ABF4F2C91848D90E0019670
:100AF0008F739927848FA689B7892C93A089B18990
:100B00008C91837080648C93938D848D981306C030
:100B10000288F389E02D80818F7D80830895EF9294
:100B2000FF920F931F93CF93DF93EC0181E0888FA7
:100B30009B8D8C8D98131AC0E889F989808185FF77
:100B400015C09FB7F894EE89FF896083E889F98919
:100B500080818370806480839FBF81E090E0DF911B
:100B6000CF911F910F91FF90EF900895F62E0B8D6E
:100B700010E00F5F1F4F0F731127E02E8C8D8E1129
:100B80000CC00FB607FCFACFE889F989808185FF90
:100B9000F5CFCE010E946D05F1CFEB8DEC0FFD2F4F
:100BA000F11DE35AFF4FF0829FB7F8940B8FEA894B
:100BB000FB8980818062CFCFCF93DF93EC01888D5A
:100BC0008823B9F0AA89BB89E889F9898C9185FDC8
:100BD00003C0808186FD0DC00FB607FCF7CF8C9156
:100BE00085FFF2CF808185FFEDCFCE010E946D059C
:100BF000E9CFDF91CF910895089590E080E00895C6
:100C000084E190E00E94360364E670E080E090E0CA
:100C10000E948C048AE090E00E94360364E670E053
:100C200080E090E00E948C0484E190E00E94360312
:100C300064E670E080E090E00E948C048AE090E03E
:100C40000E94360364E670E080E090E00E948C042D
:100C500081E0089581E490E00E94360364E670E04C
:100C600080E090E00E948C048FE390E00E943603C5
:100C700064E670E080E090E00E948C0481E490E003
:100C80000E94360364E670E080E090E00E948C04ED
:100C90008FE390E00E94360364E670E080E090E02D
:100CA0000E948C0481E00895CF93DF93EC0160E013
:100CB0008E810E949B0361E08E810E949B0360E015
:100CC0008E810E949B038BE891E00197F1F7DF9101
:100CD000CF910895CF92DF92EF92FF920F931F93DF
:100CE000CF93DF936C017C0187E0E80EF11CD0E02C
:100CF000C0E0062F10E0B8010C2E02C07595679574
:100D00000A94E2F76170F70181917F010E949B03D1
:100D10002196C430D10579F7C601DF91CF911F919B
:100D20000F91FF90EF90DF90CF900C945406CF92EC
:100D3000DF92EF92FF920F931F93CF93DF93EC011B
:100D4000F62E642F8C810E949B038D818F3F19F0BA
:100D500060E00E949B030F2D10E08F8584FF25C06B
:100D60006E0187E0C80ED11CF12CE12CB8010E2CCD
:100D700002C0759567950A94E2F76170F60181915A
:100D80006F010E949B03FFEFEF1AFF0A88E0E8164D
:100D9000F10461F7CE01DF91CF911F910F91FF9088
:100DA000EF90DF90CF900C945406B80184E07595D5
:100DB00067958A95E1F7CE010E946A066F2DCE01F4
:100DC000DF91CF911F910F91FF90EF90DF90CF9027
:100DD0000C946A0640E0682F85E395E00C94970632
:100DE000CF93DF93823029F49091440598609093DB
:100DF0004405809348051092490580E480934A0594
:100E000080E180934B0580E580934C0561E0809103
:100E100039050E94E70380913A058F3F19F061E0A0
:100E20000E94E70361E080913B050E94E703C5E370
:100E3000D5E09E01255335408091440584FD0BC0CB
:100E400084E090E021962817390744F461E08E8110
:100E50000E94E703EECF88E090E0F4CF8BE39DE0C3
:100E60000197F1F760E0809139050E949B0360E0F3
:100E700080913B050E949B0380913A058F3F19F0BA
:100E800060E00E949B038091440584FD39C063E0CB
:100E900085E395E00E946A06CBE4D6E4CE01019793
:100EA000F1F763E085E395E00E946A062197F1F788
:100EB00063E085E395E00E946A0683E592E001978E
:100EC000F1F762E085E395E00E946A0680914405AF
:100ED00080620E94EA0684E0809345058CE00E94CF
:100EE000EA0681E00E94EA068BE39FE10197F1F7B1
:100EF00082E08093460586E0DF91CF910C94EA066C
:100F000080620E94EA068BE496E40197F1F78091F3
:100F1000440580620E94EA0683E592E00197F1F7BA
:100F20008091440580620E94EA06D0CF90914805E6
:100F3000691710F06FEF690FE62FF0E0EB5CFA4FE6
:100F40009489890F80680C94EA0641E00E94970614
:100F500081E090E008950F931F93CF93DF938B016F
:100F600028E0829FC001112480640E94EA06E80103
:100F7000085F1F4F699185E395E00E94A507C017A0
:100F8000D107C1F7DF91CF911F910F910895FF9283
:100F90000F931F93CF93DF938C01F62EFC012481D6
:100FA000358180E02131310531F081E190E0821B13
:100FB000930B96958795C82FCF1960E08C2F0E94D0
:100FC0009607F801448155816081718185E395E040
:100FD0000E94EF04D1E0DC1758F460E08D2F0E94EE
:100FE000960761E085E395E00E94A507DF5FF3CFF8
:100FF000F80124813581C1E1D0E0C21BD30BC2309E
:10100000D10588F0D695C7952F19C20FCF3068F457
:1010100060E08C2F0E94960761E085E395E00E94D6
:10102000A507CF5FF3CFC0E0EFCFF80184819581B2
:101030002CE8289FB001299F700D112490E080E0DA
:10104000DF91CF911F910F91FF900C948C04FF9230
:101050000F931F93CF93DF938C01F62ED42FFC01B7
:101060002481358180E02131310531F081E190E04A
:10107000821B930B96958795C82FCD1B6F2D8C2FB8
:101080000E949607F801448155816081718185E352
:1010900095E00E94EF04F11010C0FF24F394FC16B9
:1010A00008F048C060E08F2D0E94960761E085E35C
:1010B00095E00E94A507F394F2CFFC1678F561E065
:1010C0008F2D0E94960762E085E395E00E94A507B8
:1010D000F394F3CF369527958D1BC82FC20FCF30D1
:1010E000A8F560E08C2F0E94960761E085E395E00B
:1010F0000E94A507CF5FF3CF369527958D1BC82F8C
:10110000C20FCF3018F561E08C2F0E94960762E085
:1011100085E395E00E94A507CF5FF3CFF8018481B6
:10112000958121E130E0281B390B2230310520F771
:1011300020E0E4CFF8018481958121E130E0281B93
:10114000390B2230310530F620E0C6CFDF91CF9148
:101150001F910F91FF900895FC0101900020E9F785
:101160003197AF01481B590BBC0184E692E00C9407
:10117000EF04CF93DF93BC0184E692E00E94CB049E
:10118000EC018EE691E00E94AC088C0F9D1FDF9170
:10119000CF910895CF93DF93D0E0C0E0009719F08E
:1011A0000E94AC08EC018EE691E00E94AC088C0F26
:1011B0009D1FDF91CF910895CF93DF93FC01448170
:1011C00055816081718184E692E00E94EF04EC0118
:1011D0008EE691E00E94AC088C0F9D1FDF91CF91AD
:1011E00008950F931F93CF93DF93EC01888199812A
:1011F000009759F02A813B812617370730F081E0AC
:10120000DF91CF911F910F9108958B016F5F7F4FF9
:101210000E94FC17009759F0998388831B830A83E7
:101220002C813D81232B59F7FC011082E8CF80E00F
:10123000E7CFCF93DF93EC0188819981009711F07C
:101240000E947317198218821D821C821B821A82C7
:10125000DF91CF910895EF92FF920F931F93CF9359
:10126000DF938C017B016115710551F1FB01019048
:101270000020E9F73197E61BF70BD1F0DC0114965B
:10128000CD91DC91CE0FDF1FBE010E94F1088823B3
:10129000B9F0F8012081318184819581B701820FF5
:1012A000931F0E94C218D8011596DC93CE93149711
:1012B000C801DF91CF911F910F91FF90EF9008959A
:1012C000C8010E941909F4CFEF92FF920F931F9368
:1012D000CF93DF93EC017B018A01BA010E94F108F0
:1012E00081110BC0CE010E941909CE01DF91CF916F
:1012F0001F910F91FF90EF9008951D830C83B7010C
:10130000888199810E94C218F0CFFB01DC011196FF
:101310001C921E9213961C921E92129715961C9266
:101320001E9214978617970749F0608171816115A5
:10133000710521F0448155810C9464090895FC01E4
:101340001182108213821282158214826115710536
:1013500051F0FB0101900020E9F73197AF01461BE6
:10136000570B0C9464090895EF92FF920F931F930B
:10137000CF93DF93EC01198218821B821A821D829F
:101380001C826115710509F18B01CB010E9480144B
:101390007C01BC01CE010E94F108811109C0CE017F
:1013A000DF91CF911F910F91FF90EF900C9419094D
:1013B000FD82EC82B80188819981DF91CF911F91E4
:1013C0000F91FF90EF900C947914DF91CF911F91C2
:1013D0000F91FF90EF900895FC018081918100971B
:1013E00011F00C94731708951F920F920FB60F927D
:1013F00011242F933F938F939F93AF93BF9380912B
:10140000580290915902A0915A02B0915B0230911A
:10141000570223E0230F2D3758F50196A11DB11D6A
:10142000209357028093580290935902A0935A0236
:10143000B0935B0280915C0290915D02A0915E028C
:10144000B0915F020196A11DB11D80935C02909343
:101450005D02A0935E02B0935F02BF91AF919F9136
:101460008F913F912F910F900FBE0F901F90189565
:1014700026E8230F0296A11DB11DD2CF1F920F9215
:101480000FB60F9211242F933F934F935F936F9357
:101490007F938F939F93AF93BF93EF93FF9384E6D4
:1014A00092E00E946D05FF91EF91BF91AF919F91E6
:1014B0008F917F916F915F914F913F912F910F90FD
:1014C0000FBE0F901F9018951F920F920FB60F929C
:1014D00011242F938F939F93EF93FF93E0917402C6
:1014E000F09175028081E0917A02F0917B0282FD99
:1014F0001BC0908180917D028F5F8F7320917E024F
:10150000821741F0E0917D02F0E0EC59FD4F958F9C
:1015100080937D02FF91EF919F918F912F910F907A
:101520000FBE0F901F9018958081F4CF1F920F92DD
:101530000FB60F9211242F933F934F935F936F93A6
:101540007F938F939F93AF93BF93CF93DF93EF934B
:10155000FF9380915602C0912503D0E087FF24C0FD
:101560001092850010928400809156028F5F8093C4
:10157000560280915602082E000C990B8C179D077D
:1015800024F4809156028C30C4F1809184009091B3
:101590008500049680349C4908F47AC080918400C8
:1015A00090918500049676C080915602082E000C1A
:1015B000990B8C179D07C4F6E09156028E2FEE0F03
:1015C000990BFC01EE0FFF1FE80FF91FEF5FFC4FB7
:1015D000808186FFC9CFE09156028E2FEE0F990BC6
:1015E000FC01EE0FFF1FE80FF91FEF5FFC4F80813A
:1015F00060E08F730E949B03B7CF209184003091ED
:101600008500E09156028E2FEE0F990BFC01EE0F34
:10161000FF1FE80FF91FEF5FFC4F81819281820F5E
:10162000931F9093890080938800E09156028E2F3B
:10163000EE0F990BFC01EE0FFF1FE80FF91FEF5F94
:10164000FC4F808186FF11C0E09156028E2FEE0F75
:10165000990BFC01EE0FFF1FE80FF91FEF5FFC4F26
:10166000808161E08F730E949B03FF91EF91DF9176
:10167000CF91BF91AF919F918F917F916F915F912A
:101680004F913F912F910F900FBE0F901F90189583
:1016900080E49CE990938900809388008FEF809389
:1016A0005602E3CFCF93109267021092660288EE43
:1016B00093E0A0E0B0E08093680290936902A09369
:1016C0006A02B0936B0284E591E090936502809387
:1016D000640285EC90E0909371028093700284EC38
:1016E00090E0909373028093720280EC90E090936C
:1016F00075028093740281EC90E09093770280935E
:10170000760282EC90E0909379028093780286ECE6
:1017100090E090937B0280937A0210927D02109267
:101720007E0210927F021092800210923805109271
:10173000370586E691E0909336058093350588E07D
:1017400080933905CFEFC0933A0589E080933B053C
:1017500084E080933C0585E080933D0586E080939E
:101760003E0587E080933F051092400510924105A9
:1017700010924205109243051092440581E00E94A8
:10178000F006809125038C3008F060C091E0980F3E
:10179000909325038093320590E0FC01EE0FFF1F2C
:1017A000E80FF91FEF5FFC4F88EB9BE0928381838A
:1017B0008AE080934703109248031092260391E039
:1017C0009093270382E08093280383E0809329038A
:1017D00090932A0380932B0310922E0310922F03D1
:1017E000109230031092310381E791E0909333031C
:1017F000809332038EE891E0909335038093340315
:101800008EE791E090933703809336038BE891E065
:10181000909339038093380386E991E090933B03DA
:1018200080933A038EE991E090933D0380933C03CB
:101830000E94BF0460934203709343038093440368
:101840009093450310924603CF910895C0933205BB
:10185000AFCFCF93DF93CDB7DEB7AD970FB6F89488
:10186000DEBF0FBECDBF789484B5826084BD84B5E1
:10187000816084BD85B5826085BD85B5816085BD8B
:1018800080916E00816080936E0010928100809143
:1018900081008260809381008091810081608093CB
:1018A0008100809180008160809380008091B100F0
:1018B00084608093B1008091B00081608093B0001B
:1018C00080917A00846080937A0080917A008260AF
:1018D00080937A0080917A00816080937A00809171
:1018E0007A00806880937A001092C10010924A03B7
:1018F00010924B0310924C0310924D0380E090E045
:10190000A0EFB2E480934E0390934F03A093500353
:10191000B093510360E08FE00E94E70360E080E154
:101920000E94E70360E081E10E94E70382E00E94F9
:10193000F00668E471E081E00E94AB0760E471E0CA
:1019400082E00E94AB0768E371E083E00E94AB078E
:1019500060E371E084E00E94AB0768E271E085E03B
:101960000E94AB0760E271E086E00E94AB0768E18D
:1019700071E087E00E94AB0760E080E00E9496077C
:1019800063E085E395E00E94A50760E08FE00E9498
:10199000960764E085E395E00E94A50761E080E09A
:1019A0000E94960765E085E395E00E94A50761E047
:1019B0008FE00E94960766E085E395E00E94A50708
:1019C00011E060E0812F0E94960761E085E395E0D9
:1019D0000E94A50761E0812F0E94960762E085E3DF
:1019E00095E00E94A5071F5F1F3059F7E091740230
:1019F000F091750282E08083E0917002F0917102B3
:101A00001082E0917202F09173028FEC8083109249
:101A10007C02E0917802F091790286E08083E09187
:101A20007602F0917702808180618083E091760276
:101A3000F0917702808188608083E0917602F09156
:101A40007702808180688083E0917602F09177024E
:101A500080818F7D8083809132058C3008F051C069
:101A600061E083E10E94E70380913205282F30E096
:101A7000F901EE0FFF1FE20FF31FEF5FFC4F9081A4
:101A8000907C9361908310923305109234052CE082
:101A9000622F0E94C516829FB001112430E020E021
:101AA000AB01420F531FFA01EE0FFF1FE40FF51FAA
:101AB000EF5FFC4F908196FD16C02F5F3F4F2C309B
:101AC000310571F781110FC01092800082E0809380
:101AD00081001092850010928400B19A80916F006D
:101AE000826080936F00E09132058E2F90E0FC01C0
:101AF000EE0FFF1FE80FF91FEF5FFC4F808180643E
:101B000080836DE271E08E010F5F1F4FC8010E945C
:101B1000B40960E0C8010E94C707C8010E94EC092F
:101B20006091040170910501C8010E949F0960E065
:101B3000C8010E94C707C8010E94EC096091060114
:101B400070910701C8010E949F0960E0C8010E94CE
:101B5000C707C8010E94EC09E0900001F090010164
:101B600065E171E0C8010E94B409B801CE01829616
:101B70000E948509B701CE0182960E942B090E941E
:101B8000DC08CE0182960E94EC09C8010E94EC0993
:101B9000E0900201F09003016DEF70E0C8010E9437
:101BA000B409B801CE0182960E948509B701CE0121
:101BB00082960E942B090E94DC08CE0182960E9428
:101BC000EC09C8010E94EC0966EE70E084E692E040
:101BD0000E94CB0480910C0190910D010E94CA08D3
:101BE000E0900C01F0900D016DED70E0C8010E94D5
:101BF000B409B801CE0182960E948509B701CE01D1
:101C000082960E942B096E0128E2C20ED11CBC01F3
:101C1000C6010E94850961E0C6010E94C707C6018E
:101C20000E94EC09CE0182960E94EC09C8010E9434
:101C3000EC0965EC70E084E692E00E94CB048091B0
:101C40000801909109010E94CA0866EB70E0C80182
:101C50000E94B40960E0C8010E94C707C8010E9441
:101C6000EC096AE970E084E692E00E94CB0480917E
:101C70000A0190910B010E94CA0889E990E00E9434
:101C8000B9086FE870E0C8010E94B40961E0C801BA
:101C90000E94C707C8010E94EC090E9421142AE093
:101CA00030E040E050E00E944C15962EF62EE12CDC
:101CB0008AE0482E512C612C712CE91408F05BC08D
:101CC00062E770E084E692E00E94CB042F2D30E0C2
:101CD00050E040E019A25E0181E2A80EB11CCA01E9
:101CE000B901A30192010E94B515605DD5016E9303
:101CF0005D01211531054105510589F7109719F04E
:101D0000CD010E94AC0860E770E084E692E00E949A
:101D1000CB04BCE0BB2E60E08B2D0E9496076EE6E4
:101D200070E085E395E00E94CB04FF2031F06CE683
:101D300070E084E692E00E94CB0468EB70E080E003
:101D400090E00E948C0460E08B2D0E94960761E079
:101D500085E395E00E94A507B394BFE0BB12DBCFFB
:101D6000FF2039F06AE670E084E692E00E94CB043E
:101D7000FA94E394A2CF68E670E084E692E00E94D1
:101D8000CB04EAE04E2E512C612C712CFCE0FF2E8E
:101D9000A0E02A2EA0E03A2E90912C0380912603F9
:101DA00098137DC00E94BF0480904203909043032B
:101DB000A0904403B0904503681979098A099B09EA
:101DC0006D3677408105910568F180914603811158
:101DD00029C06DEB75E0C8010E94B40940E060E0E5
:101DE000C8010E942708C8010E94EC096EEA75E04C
:101DF000C8010E94B40940E061E0C8010E942708C0
:101E0000C8010E94EC090E94BF04609342037093D2
:101E100043038093440390934503809146038F5F6F
:101E2000809346030E94BF04809042039090430336
:101E3000A0904403B0904503681979098A099B0969
:101E400065357B408105910550F1809146038130D5
:101E500031F563EA75E0C8010E94B40940E060E032
:101E6000C8010E942708C8010E94EC0966E975E0D4
:101E7000C8010E94B40940E061E0C8010E9427083F
:101E8000C8010E94EC090E94BF0460934203709352
:101E900043038093440390934503109246030E94AA
:101EA0002D048330910509F46CC494F501970CF06E
:101EB0007AC00E94BF04AB01BC0180913E039091A7
:101EC0003F03A0914003B09141038856954CAF4F1A
:101ED000BF4F84179507A607B70770F480912603B4
:101EE00080932C030E94BF0460933E0370933F03D2
:101EF00080934003909341032114310409F44CCFA3
:101F00000E945905882309F447CF0E94000044CF5E
:101F10008430910509F44EC0059759F66AEF70E0D8
:101F200080E090E00E948C0480912C0390912B0320
:101F3000891708F035C48F5F80932C03E0912C0340
:101F400024E0E29FF0011124E25DFC4F6081718189
:101F5000C8010E949F0940E060E0C8010E94270874
:101F6000C8010E94EC09E0912C0344E0E49FF001D9
:101F70001124EA5DFC4F62857385C8010E949F09A8
:101F800040E061E0C8010E942708C8010E94EC09F6
:101F90000E94BF0460933E0370933F03809340030D
:101FA0009093410386CF6AEF70E080E090E00E945A
:101FB0008C047FCF6AEF70E080E090E00E948C0498
:101FC00090912C0380912703981373CF0E942A06C7
:101FD00088E695E00E94B90888E495E00E94B90877
:101FE0000E94BF044B015C01E12C0E94BF046819F0
:101FF00079098A099B096D3677408105910510F1B1
:10200000E11020C06CE375E0C8010E94B40940E013
:1020100060E0C8010E942708C8010E94EC0963E340
:1020200075E0C8010E94B40940E061E0C8010E9467
:102030002708C8010E94EC090E94BF044B015C0103
:10204000EE24E3940E94BF04681979098A099B0968
:1020500069327A408105910510F151E0E5121FC007
:1020600069E275E0C8010E94B40941E060E0C8017E
:102070000E942708C8010E94EC0964E275E0C801CB
:102080000E94B40940E061E0C8010E942708C8012D
:102090000E94EC090E94BF044B015C01E12C0E94EC
:1020A0002D04039709F0A1CF809149039091470334
:1020B000891708F0AFC08F5F809349030E94000624
:1020C00082E095E00E94B9088AED94E00E94B90888
:1020D0000E942114A30192010E944C15862E912C7E
:1020E0008114910409F4ABC063EB74E0C8010E9451
:1020F000B409B801CE0182960E9485094AE0B60172
:10210000C4010E948914F60101900020E9F731977B
:10211000EC19FD09B9F0AEA0BFA0AE0EBF1EB5010F
:10212000CE0182960E94F108882309F476C02AA184
:102130003BA18EA19FA1B601820F931F0E94C218DE
:10214000BFA2AEA2AEA0BFA08FEFA81AB80AB50179
:10215000CE0182960E94F108811164C0CE01829660
:102160000E941909CE0182960E94DC08CE01829657
:102170000E94EC09C8010E94EC0963EA74E0C801FE
:102180000E94B40940E060E0C8010E942708C8012D
:102190000E94EC091BA21AA21DA21CA21FA21EA231
:1021A0004AE0B801C4010E949414F8010190002093
:1021B000E9F73197AF01401B510BB801CE01829670
:1021C0000E946409BE016E5D7F4FC8010E948509AF
:1021D0006CED71E0C8010E942B09BC01C6010E9490
:1021E000850940E061E0C6010E942708C6010E94FF
:1021F000EC09C8010E94EC09CE0182960E94EC090C
:1022000068EE73E080E090E00E948C0491E0891A0F
:10221000910866CF809148034FCFCE0182960E94ED
:10222000190990CF2AA13BA18EA19FA161EB74E077
:10223000820F931F0E947914BFA2AEA293CF81E8B0
:1022400094E00E94B9080E942A068823B1F00E94F7
:10225000BF04A0904903FA9C90011124D901AE5506
:10226000BC4F5D010E94BE14F501608371838283BF
:10227000938381E694E00E94B90868E574E0C801A0
:102280000E94B40940E060E0C8010E942708C8012C
:102290000E94EC096EE474E0C8010E94B40941E0B8
:1022A00061E0C8010E942708C8010E94EC098FE084
:1022B0000E9418048939934004F30E94BF04A0903F
:1022C0004903FA9C90011124A9014A555C4F5A0117
:1022D0000E94BE14D5016D937D938D939C931397AB
:1022E00085E294E00E94B90869E174E0C8010E94A7
:1022F000B40940E060E0C8010E942708C8010E94BC
:10230000EC096FE074E0C8010E94B40940E061E0AC
:10231000C8010E942708C8010E94EC0980E10E94C0
:10232000180489399340D4F30E94BF04A090490354
:10233000FA9C90011124F901E655FC4F5F010E94BF
:10234000BE14D5016D937D938D939C93139787EE67
:1023500093E00E94B9086CED73E0C8010E94B409D3
:1023600040E060E0C8010E942708C8010E94EC0913
:1023700062ED73E0C8010E94B40940E061E0C80169
:102380000E942708C8010E94EC0981E10E941804FC
:1023900089399340D4F30E94BF042091490330E06F
:1023A000A9014F5F5F4FF49E9001F59E300D1124FF
:1023B000F901EE55FC4F5F010E94BE14D5016D93EB
:1023C0007D938D939C93139789EA93E00E94B908BB
:1023D0006DE973E0C8010E94B40940E060E0C80103
:1023E0000E942708C8010E94EC0963E973E0C80154
:1023F0000E94B40940E061E0C8010E942708C801BA
:102400000E94EC0967E873E0C8010E94B40940E04B
:1024100060E0C8010E942708C8010E94EC096FE72C
:1024200073E0C8010E94B40940E061E0C8010E9465
:102430002708C8010E94EC090E94000682E593E08B
:102440000E94B9088CE193E00E94B908A09049036A
:10245000B4E0AB9E50011124F501E65FFA4F5F0135
:1024600020914A0330914B0340914C0350914D030E
:1024700060914E0370914F038091500390915103EE
:102480000E94E615D5016D937D938D939C931397D0
:102490008DEE92E00E94B90880914903F89EC00138
:1024A0001124895B9C4F5C01B3EDAB0EB11CFC01A8
:1024B000E15AFF4F855A9F4FDC012D913D914D917F
:1024C0005C9160817181828193810E94E615F501A2
:1024D00060837183828393838FEB92E00E94B908BB
:1024E00080914903F89EC0011124895B9C4F5C01D7
:1024F000F7EDAF0EB11CFC01ED59FF4F815A9F4F14
:10250000DC012D913D914D915C91608171818281C1
:1025100093810E94E615F501608371838283938322
:102520008FE892E00E94B9082091490330E0F29EC2
:10253000C001F39E900D1124895B9C4F5C01FBED63
:10254000AF0EB11C2F5F3F4FF29EF001F39EF00DD6
:102550001124EE55FC4F8D599F4FDC012D913D917B
:102560004D915C9160817181828193810E94E61519
:10257000F50160837183828393838FE592E00E94EB
:10258000B9088091490390E0F89E9001F99E300DC2
:102590001124295B3C4F5901F5EBAF1AFEEFBF0A3E
:1025A000880F991F880F991FFC01E65FFA4F2D5283
:1025B0003F4FD9012D913D914D915C916081718189
:1025C000828193810E945316F50160837183828317
:1025D000938380E392E00E94B9088091490390E0E0
:1025E000F89E9001F99E300D1124295B3C4F590152
:1025F000F1EBAF1AFEEFBF0A880F991F880F991FE2
:10260000FC01E65FFA4F29523F4FD9012D913D91D0
:102610004D915C9160817181828193810E945316FA
:10262000F50160837183828393838FEF91E00E9431
:10263000B9088091490390E0F89E9001F99E300D11
:102640001124295B3C4F5901FDEAAF1AFEEFBF0A86
:10265000880F991F880F991FFC01E65FFA4F2552DA
:102660003F4FD9012D913D914D915C9160817181D8
:10267000828193810E945316F50160837183828366
:10268000938383ED91E00E94B9082091490330E0E3
:10269000A9014F5F5F4FF49EC001F59E900D11247C
:1026A000895B9C4F5C01F3EDAF0EB11C855A9F4FC7
:1026B000F29EF001F39EF00D1124EE55FC4F2081A7
:1026C000318142815381DC016D917D918D919C918D
:1026D0000E94E615F501608371838283938385EA06
:1026E00091E00E94B9088091490390E0AC014F5FEE
:1026F0005F4FF49E9001F59E300D1124295B3C4FF5
:102700005901F5EBAF1AFEEFBF0A880F991F880F2A
:10271000991FFC01E65FFA4F2D523F4FD9012D91D1
:102720003D914D915C9160817181828193810E9484
:102730005316F501608371838283938387E791E069
:102740000E94B90887E491E00E94B9086FE371E044
:10275000C8010E94B40940E060E0C8010E94270857
:10276000C8010E94EC0965E371E0C8010E94B40948
:1027700040E061E0C8010E942708C8010E94EC09FE
:1027800098CB6AEF70E080E090E00E948C0480912A
:102790002D039091260389138CCB80932C0389CB36
:1027A0008913CCCB80912A03C7CB8F929F92AF9293
:1027B000BF92CF92DF92EF92FF92CF93DF93EC0123
:1027C000688179818A819B816115710581059105F7
:1027D00021F464E279ED8BE597E02DE133EF41E000
:1027E00050E00E944C1549015A019B01AC01A7EA37
:1027F000B1E40E946B156B017C01ACEEB4EFA50156
:1028000094010E947915C60ED71EE81EF91EF7FE28
:1028100006C081E0C81AD108E10880E8F80AC88239
:10282000D982EA82FB82C701B6019F77DF91CF91FF
:10283000FF90EF90DF90CF90BF90AF909F908F90E0
:1028400008958F929F92AF92BF92CF92DF92EF92B4
:10285000FF9260910E0170910F0180911001909193
:102860001101611571058105910521F464E279ED8D
:102870008BE597E02DE133EF41E050E00E944C15ED
:1028800049015A019B01AC01A7EAB1E40E946B1512
:102890006B017C01ACEEB4EFA50194010E947915A7
:1028A000C60ED71EE81EF91EF7FE06C081E0C81A44
:1028B000D108E10880E8F80AC0920E01D0920F0119
:1028C000E0921001F0921101C701B6019F77FF90CD
:1028D000EF90DF90CF90BF90AF909F908F90089532
:1028E00060930E0170930F0180931001909311017A
:1028F0000895FB01DC0105900D920020E1F7089599
:10290000FC0105900020E9F7809590958E0F9F1FA0
:102910000895BB274A3031F4992322F4BDE2909503
:1029200081959F4F0C949514BB27FB015527AA272F
:10293000880F991FAA1FA41710F0A41B839550514C
:10294000B9F7A05DAA3308F0A95DA193009779F7C4
:10295000B111B1931192CB010C94AE14DC01FC01C6
:10296000672F71917723E1F7329704C07C916D93C3
:1029700070836291AE17BF07C8F30895E89409C049
:1029800097FB3EF490958095709561957F4F8F4FA2
:102990009F4F9923A9F0F92F96E9BB279395F695B8
:1029A000879577956795B795F111F8CFFAF4BB0F36
:1029B00011F460FF1BC06F5F7F4F8F4F9F4F16C09A
:1029C000882311F096E911C0772321F09EE8872F24
:1029D000762F05C0662371F096E8862F70E060E0E0
:1029E0002AF09A95660F771F881FDAF7880F969559
:1029F000879597F9089597F99F6780E870E060E000
:102A000008959FEF80EC089500240A941616170687
:102A100018060906089500240A94121613061406CF
:102A200005060895092E0394000C11F4882352F032
:102A3000BB0F40F4BF2B11F460FF04C06F5F7F4FEA
:102A40008F4F9F4F089557FD9058440F551F59F0D1
:102A50005F3F71F04795880F97FB991F61F09F3F8B
:102A600079F087950895121613061406551FF2CFB4
:102A70004695F1DF08C0161617061806991FF1CF04
:102A800086957105610508940895E894BB2766272B
:102A90007727CB0197F90895052E97FB1EF4009434
:102AA0000E94631557FD07D00E94B51507FC03D09F
:102AB0004EF40C94631550954095309521953F4FF9
:102AC0004F4F5F4F089590958095709561957F4F1A
:102AD0008F4F9F4F08950E94D715A59F900DB49FCB
:102AE000900DA49F800D911D11240895B7FF0C94A3
:102AF0006B150E946B15821B930B08952F923F92CA
:102B00004F925F926F927F928F929F92AF92BF92FD
:102B1000CF92DF92EF92FF920F931F93CF93DF93A9
:102B2000CDB7DEB7CA1BDB0B0FB6F894DEBF0FBE06
:102B3000CDBF09942A88398848885F846E847D8453
:102B40008C849B84AA84B984C884DF80EE80FD8055
:102B50000C811B81AA81B981CE0FD11D0FB6F894CB
:102B6000DEBF0FBECDBFED010895A1E21A2EAA1B54
:102B7000BB1BFD010DC0AA1FBB1FEE1FFF1FA2172D
:102B8000B307E407F50720F0A21BB30BE40BF50B2A
:102B9000661F771F881F991F1A9469F760957095B3
:102BA000809590959B01AC01BD01CF010895A29F36
:102BB000B001B39FC001A39F700D811D1124911D11
:102BC000B29F700D811D1124911D08955058BB278F
:102BD000AA270E94FE150C9412150E94041538F0C5
:102BE0000E940B1520F039F49F3F19F426F40C9441
:102BF00001150EF4E095E7FB0C94FB14E92F0E94FD
:102C0000231558F3BA17620773078407950720F056
:102C100079F4A6F50C9445150EF4E0950B2EBA2F19
:102C2000A02D0B01B90190010C01CA01A0011124D2
:102C3000FF27591B99F0593F50F4503E68F11A167E
:102C4000F040A22F232F342F4427585FF3CF46950F
:102C500037952795A795F0405395C9F77EF41F1631
:102C6000BA0B620B730B840BBAF09150A1F0FF0FFB
:102C7000BB1F661F771F881FC2F70EC0BA0F621FE7
:102C8000731F841F48F4879577956795B795F795D7
:102C90009E3F08F0B0CF9395880F08F09927EE0F6C
:102CA0009795879508950E9467160C9412150E94B7
:102CB0000B1558F00E94041540F029F45F3F29F0ED
:102CC0000C94FB1451110C9446150C9401150E94A0
:102CD000231568F39923B1F3552391F3951B550BF5
:102CE000BB27AA2762177307840738F09F5F5F4FDF
:102CF000220F331F441FAA1FA9F335D00E2E3AF01E
:102D0000E0E832D091505040E695001CCAF72BD035
:102D1000FE2F29D0660F771F881FBB1F2617370786
:102D20004807AB07B0E809F0BB0B802DBF01FF27B8
:102D300093585F4F3AF09E3F510578F00C94FB1486
:102D40000C9446155F3FE4F3983ED4F3869577954F
:102D50006795B795F7959F5FC9F7880F911D969571
:102D6000879597F90895E1E0660F771F881FBB1FCD
:102D7000621773078407BA0720F0621B730B840B7A
:102D8000BA0BEE1F88F7E0950895991B79E004C00F
:102D9000991F961708F0961B881F7A95C9F780959A
:102DA0000895EE0FFF1F0590F491E02D09940F9305
:102DB0001F93CF93DF938230910510F482E090E06F
:102DC000E0914F05F091500530E020E0B0E0A0E048
:102DD000309799F42115310509F44AC0281B390BA5
:102DE00024303105D8F58A819B816115710589F1FF
:102DF000FB0193838283FE0111C0408151810281D6
:102E0000138148175907E0F04817590799F41097AC
:102E100061F012960C93129713961C933296CF0181
:102E2000DF91CF911F910F91089500934F0510935B
:102E30005005F4CF2115310551F04217530738F0F2
:102E4000A901DB019A01BD01DF01F801C1CFEF014A
:102E5000F9CF9093500580934F05CDCFFE01E20F3F
:102E6000F31F819391932250310939832883D7CF5F
:102E700020914D0530914E05232B41F420911401F2
:102E80003091150130934E0520934D05209112018C
:102E9000309113012115310541F42DB73EB7409112
:102EA000160150911701241B350BE0914D05F0914F
:102EB0004E05E217F307A0F42E1B3F0B2817390726
:102EC00078F0AC014E5F5F4F2417350748F04E0F86
:102ED0005F1F50934E0540934D05819391939FCF73
:102EE000F0E0E0E09CCFCF93DF930097E9F0FC01A6
:102EF000329713821282A0914F05B0915005ED01D7
:102F000030E020E01097A1F420813181820F931FDF
:102F100020914D0530914E052817390709F061C001
:102F2000F0934E05E0934D05DF91CF910895EA01AE
:102F3000CE17DF07E8F54A815B819E0141155105F7
:102F4000B1F7E901FB83EA8349915991C40FD51F79
:102F5000EC17FD0761F4808191810296840F951F23
:102F6000E90199838883828193819B838A83F0E03E
:102F7000E0E012968D919C9113970097B9F52D91F1
:102F80003C911197CD010296820F931F20914D0520
:102F900030914E052817390739F6309751F51092C0
:102FA000500510924F05B0934E05A0934D05BCCF30
:102FB000D383C28340815181840F951FC817D907DD
:102FC00061F44E5F5F4F88819981480F591F51838B
:102FD00040838A819B81938382832115310509F087
:102FE000B0CFF0935005E0934F059ECFFD01DC017B
:102FF000C0CF13821282D7CFB0E0A0E0E2E0F8E1C8
:103000000C9480158C01009751F4CB010E94D716C7
:103010008C01C801CDB7DEB7E0E10C949C15FC0132
:10302000E60FF71F9C0122503109E217F30708F45D
:103030009DC0D901CD91DC911197C617D70798F0A3
:10304000C530D10530F3CE0104978617970708F3F2
:10305000C61BD70B2297C193D1936D937C93CF015D
:103060000E947317D6CF5B01AC1ABD0A4C018C0EBF
:103070009D1EA0914F05B0915005512C412CF12C73
:10308000E12C109731F580914D0590914E058815F2
:10309000990509F05CC04616570608F058C08091A3
:1030A000120190911301009741F48DB79EB74091A2
:1030B000160150911701841B950BE817F90708F0CA
:1030C00055C0F0934E05E0934D05F901718360837F
:1030D000A0CF8D919C91119712966C901297139698
:1030E0007C901397A815B90559F56C0142E0C40E00
:1030F000D11CCA14DB0420F1AC014A195B09DA01C6
:103100001296159780F06282738251834083D901B1
:103110006D937C93E114F10471F0D7011396FC9345
:10312000EE93129776CF22968C0F9D1FF901918313
:103130008083F301EFCFF0935005E0934F0569CF03
:103140004816590608F42C017D01D3019ACFCB0112
:103150000E94D7167C01009749F0AE01B8010E9489
:10316000B918C8010E947317870153CF10E000E01F
:1031700050CFFB01DC0102C001900D924150504044
:10318000D8F70895FB01DC0101900D920020E1F7D2
:063190000895F894FFCF42
:10319600A401C601DE01EC01F40125024F02010083
:1031A600000000005105800000040A0A111F0000FB
:1031B600010101010101011E101010101010100F65
:1031C6001E010101010101010F1010101010101055
:1031D600000000000000001F1F00000000000000AB
:1031E600000000008F05EF041C05DC054D052B05CE
:1031F6003F0500000000A507EF04FD05FC050D0ACC
:1032060000494E4943494152204E4F5641004558C8
:1032160049424952204441444F53004441204C45C1
:10322600495455524100414C544552415200505266
:10323600454653004A6F7461717565726C657320FB
:10324600646F204E617363696D656E746F2046729C
:10325600616EC3A76100416269656C204D656E644D
:10326600657320646F732053616E746F73004A6FC9
:103276007461717565726C6573204E004162696593
:103286006C204D0054687572736461792C2031305E
:10329600204175677573742C20323032333B2031F0
:1032A600302F30382F32303233202D2030383A311B
:1032B600363A31370068747470733A2F2F67697421
:1032C6006875622E636F6D2F70616F64656C6F6ECB
:1032D60067612F6D656469646F722D766D6D00315F
:0632E6002E302E30000026
:00000001FF
